S01700004763634170706C69636174696F6E312E737265635B
S11300000C9419010C9436010C9436010C943601AD
S11300100C9436010C9436010C9436010C94360180
S11300200C9436010C9436010C9436010C94360170
S11300300C9436010C9436010C9436010C94360160
S11300400C9436010C9436010C9436010C94360150
S11300500C9436010C9436010C9436010C94360140
S11300600C9436010C9436010C9436010C94360130
S11300700C9436010C9436010C9436010C94360120
S11300800C9436010C9436010C9436010C94360110
S11300900C9436010C9436010C9436010C94360100
S11300A00C9436010C9436010C9436010C943601F0
S11300B00C9436010C9436010C9436010C943601E0
S11300C00C9436010C9436010C943601456E74651B
S11300D07220626C6F636B20233A20004164647267
S11300E02E204F6666736574202020302020312036
S11300F02032202033202034202035202036202098
S1130100372020382020392020412020422020433D
S11301102020442020452020460A0D00426C6F63B5
S11301206B2073697A652073657420746F20353190
S1130130322062797465730A0D0048696768204348
S113014061706163697479204361726420646574C9
S113015065637465642E0A0D005374616E64617284
S1130160642043617061636974792043617264201F
S113017064657465637465642E0A0D005665727354
S1130180696F6E2032205344204361726420646599
S11301907465637465642E0A0D0056657273696F25
S11301A06E20312053442043617264206465746579
S11301B0637465642E0A0D00526573706F6E736507
S11301C0203D200041434D4434312073656E74203A
S11301D02E2E2E2000434D4435382073656E742036
S11301E02E2E2E2000434D4431362073656E74202C
S11301F02E2E2E2000434D44382073656E74202E1D
S11302002E2E2000434D44302073656E74202E2E14
S11302102E20005344204361726420496E6974693E
S1130220616C697A6174696F6E202E2E2E200A0D1E
S1130230000011241FBECFEFD8E0DEBFCDBF11E018
S1130240A0E0B1E0E0E4FFE102C005900D92A63227
S1130250B107D9F725E0A6E2B1E001C01D92AD389F
S1130260B207E1F70E9497040C949E0F0C940000CF
S1130270FC012181622B61830895FC012281622BA0
S113028062830895FC0192816095692362830895D5
S11302903F924F925F926F927F928F929F92AF9212
S11302A0BF92CF92DF92EF92FF920F931F93CF935F
S11302B0DF93CDB7DEB760970FB6F894DEBF0FBEFD
S11302C0CDBF9E838D839C0140E052E060E070E2EC
S11302D080E090E00E94A4056D817E8180E090E042
S11302E00E94DD058B3E49F06D817E8180E090E0C7
S11302F00E94DD05893E09F02EC14D815E8160E0DA
S113030072E088EC90E00E9477056D817E8181E146
S113031090E00E94E2058C016D817E818BE090E08B
S11303200E94E205BC0190937E0180937D010197B8
S1130330000F111F02951295107F1027007F1027C0
S1130340800F911F0E94280CCB01A0E0B0E08093A5
S1130350830190938401A0938501B09386016D81FC
S11303607E8186E190E00E94E2055C016D817E81E0
S113037084E290E00E94E8056B017C016D817E813E
S113038083E190E00E94E2058C016D817E8180E230
S113039090E00E94E80569837A838B839C836D8156
S11303A07E818EE090E00E94E2054C016D817E81A9
S11303B080E190E00E94DD05382E6D817E818CE124
S11303C090E00E94E8052B013C016D817E818CE266
S11303D090E00E94E8056D877E878F87988B6D81FA
S11303E07E818DE090E00E94DD05E82F80938C01F2
S11303F0A114B10419F06501E12CF12C01151105CA
S113040039F0980140E050E029833A834B835C83C0
S1130410A12CB12CA32DB0E0A70196010E945E0C83
S11304209B01AC01280D391D4A1D5B1D2D833E83A4
S11304304F8358878091830190918401A091850115
S1130440B091860169017A01C80ED91EEA1EFB1E0D
S11304508E2F90E0A0E0B0E089879A87AB87BC87B5
S113046069817A818B819C816C197D098E099F0930
S113047029853A854B855C850E943C0C253F3F4F7E
S11304804105510578F582E080937701840C951C31
S1130490A61CB71C8092790190927A01A0927B01EC
S11304A0B0927C01D301C2018C0D9D1DAE1DBF1DF8
S11304B080937F0190938001A0938101B093820186
S11304C08D819E81AF81B885840D951DA61DB71DB4
S11304D08093880190938901A0938A01B0938B0142
S11304E080E080C184E080937701840C951CA61C75
S11304F0B71C8092790190927A01A0927B01B0920C
S11305007C01530142018C0C9D1CAE1CBF1C8092CB
S11305107F0190928001A0928101B09282012D8589
S11305203E854F8558892250310941095109698511
S11305307A858B859C850E94180C860E971EA81EB2
S1130540B91E8092880190928901A0928A01B0928A
S11305508B0180E047C16D817E8186EC91E00E9431
S1130560E8052D813E8140E052E00E94A4056D81A2
S11305707E8180E090E00E94DD058B3E49F06D8134
S11305807E8180E090E00E94DD05893E09F029C16A
S11305906D817E8181E190E00E94E2058C016D8194
S11305A07E818BE090E00E94E205BC0190937E0185
S11305B080937D01C801880F991F82959295907F41
S11305C09827807F98279B0121503109820F931F20
S11305D00E94280CCB01A0E0B0E0809383019093AB
S11305E08401A0938501B09386016D817E8186E1AB
S11305F090E00E94E2055C016D817E8184E290E0DE
S11306000E94E8056B017C016D817E8183E190E0AD
S11306100E94E2058C016D817E8180E290E00E945F
S1130620E80569837A838B839C836D817E818EE068
S113063090E00E94E2054C016D817E8180E190E0B2
S11306400E94DD05382E6D817E818CE190E00E9450
S1130650E8052B013C016D817E818CE290E00E94D3
S1130660E8056D877E878F87988B6D817E818DE00D
S113067090E00E94DD05E82F80938C01A114B10461
S113068019F06501E12CF12C0115110539F09801DF
S113069040E050E029833A834B835C83A12CB12C46
S11306A0A32DB0E0A70196010E945E0C9B01AC0152
S11306B0280D391D4A1D5B1D2D833E834F835887AA
S11306C08091830190918401A0918501B09186016C
S11306D069017A01C80ED91EEA1EFB1E8E2F90E016
S11306E0A0E0B0E089879A87AB87BC8769817A816B
S11306F08B819C816C197D098E099F0929853A8516
S11307004B855C850E943C0C253F3F4F41055105BC
S113071078F582E080937701840C951CA61CB71CA5
S11307208092790190927A01A0927B01B0927C012F
S1130730D301C2018C0D9D1DAE1DBF1D80937F0191
S113074090938001A0938101B09382018D819E8159
S1130750AF81B885840D951DA61DB71D80938801B2
S113076090938901A0938A01B0938B0180E03AC0F1
S113077084E080937701840C951CA61CB71C80929E
S1130780790190927A01A0927B01B0927C0153018D
S113079042018C0C9D1CAE1CBF1C80927F01909268
S11307A08001A0928101B09282012D853E854F8502
S11307B05889225031094109510969857A858B8507
S11307C09C850E94180C860E971EA81EB91E809246
S11307D0880190928901A0928A01B0928B0180E0F5
S11307E001C081E060960FB6F894DEBF0FBECDBFA6
S11307F0DF91CF911F910F91FF90EF90DF90CF90F9
S1130800BF90AF909F908F907F906F905F904F902C
S11308103F9008958F929F92AF92BF92EF92FF9272
S11308200F931F93CF93DF93CDB7DEB72B970FB6FC
S1130830F894DEBF0FBECDBF7C01FE013196CE0120
S11308400C961192E817F907E1F700E0C7010E943E
S1130850B50B182F80ED810F8A3068F4612FC70122
S11308600E94AE0BE1E0F0E0EC0FFD1FE00FF11D84
S113087010830F5F45C0183011F01F37A9F40150E1
S1130880E1E0F0E0EC0FFD1FE00FF11D108268E0E5
S1130890C7010E94AE0B60E2C7010E94AE0B68E084
S11308A0C7010E94AE0B2CC01D3021F01A3011F08C
S11308B01E3231F5CE0101960E94780C4B015C0189
S11308C06DE0C7010E94AE0B6AE0C7010E94AE0B47
S11308D00A3071F4CE0101960E94780C4B015C0140
S11308E06DE0C7010E94AE0B6AE0C7010E94AE0B27
S11308F08FEF88169806A806B80609F4A7CF04C097
S11309000A3009F0A3CFE6CFC501B4012B960FB688
S1130910F894DEBF0FBECDBFDF91CF911F910F9131
S1130920FF90EF90BF90AF909F908F9008950E949A
S1130930BB0BEC0160EC80E290E00E943D0160ECB6
S113094080E290E00E94380169E183E290E00E9435
S11309503D0169E183E290E00E94380160E886E2AB
S113096090E00E943D0160E886E290E00E94380138
S113097060E18CE290E00E943D0160E18CE290E055
S11309800E94380140E85AE166E070E08CE490E0AF
S11309900E94F90A60E875E288EC90E00E94870BF7
S11309A00E94D40640E854E86EE170E08CE490E0E4
S11309B00E94F90AAE0160E08CEC90E00E94BE0B4C
S11309C0AE0160E088EC90E00E94DE0B88EC90E0E1
S11309D00E940A0468E083E290E00E9442018DE8EC
S11309E093E00E944801E6CF8F929F92AF92BF920C
S11309F0CF92DF92EF92FF920F931F93CF93DF93E7
S1130A007C01EB018A010E94BB0BC82ED92EC00FBA
S1130A10D11FDF93CF9380E091E09F938F93DF9278
S1130A20CF920E94B40C4C2D5D2D60E0C7010E9452
S1130A30DE0B1F930F9384E091E09F938F93DF92DB
S1130A40CF920E94B40C4C2D5D2D60E0C7010E9432
S1130A50DE0B8E015E01E0E1AE0EB11C8DB79EB7D8
S1130A600C960FB6F8949EBF0FBE8DBF0F2EFEE0FE
S1130A708F2EF1E09F2EF02D89911F928F939F92DC
S1130A808F92DF92CF920E94B40C4C2D5D2D60E0CA
S1130A90C7010E94DE0B0F900F900F900F900F90E4
S1130AA00F90AC16BD0641F7F80161918F0180EEFD
S1130AB0860F803608F06EE2C7010E94AE0B0A155D
S1130AC01B0591F76DE0C7010E94AE0B6AE0C701F8
S1130AD00E94AE0BDF91CF911F910F91FF90EF9089
S1130AE0DF90CF90BF90AF909F908F900895CF925A
S1130AF0DF92EF92FF920F931F93CF93DF938C01BA
S1130B006B017A010E94BB0BEC01AC0160E08CED3F
S1130B1090E00E94BE0BAE0160E0C8010E94DE0BB3
S1130B20C0E0D0E0AE01B701C8010E94F4046096B1
S1130B30CC15DD05B8F3DF91CF911F910F91FF9094
S1130B40EF90DF90CF900895BF92CF92DF92EF9213
S1130B50FF920F931F93CF93DF936B017C01EA0104
S1130B6089010E94F60AB82E60E183E290E00E94B7
S1130B704201B701A60104C0440F551F661F771F29
S1130B80BA94D2F781E10E94F005F82E811105C0D4
S1130B90B801CE010E947906F82E60E183E290E06C
S1130BA00E943D018F2DDF91CF911F910F91FF90F6
S1130BB0EF90DF90CF90BF900895860F971FFC01B0
S1130BC080810895860F971FFC01808190E008952D
S1130BD0860F971FFC01608170E080E090E008952B
S1130BE0CF92DF92EF92FF92CF938034A0F56A0107
S1130BF07B01C82F682F60648CE490E00E94800B16
S1130C006F2D7727882799278CE490E00E94800B2A
S1130C106E2D8CE490E00E94800BEE24FF24992733
S1130C208F2D7E2D6D2D8CE490E00E94800B6C2D19
S1130C308CE490E00E94800BCC2321F0C83021F09A
S1130C4061E003C065E901C067E88CE490E00E94BC
S1130C50800B80E001C082E8CF91FF90EF90DF909D
S1130C60CF900895EF92FF920F931F93CF93DF934A
S1130C70D82F8B01C0E06FEF8CE490E00E94800BD2
S1130C80CF5F8F3F21F4C111F6CFC1E825C0CC233B
S1130C90F1F0F80180838230E0F4D230E0F07801A2
S1130CA0FFEFEF1AFF0A8EEF8D0F90E00296E80136
S1130CB0C80FD91F6FEF8CE490E00E94800BF701FE
S1130CC081937F01EC17FD07A9F7C0E005C0C1E8D7
S1130CD003C0C3E801C0C0E06FEF8CE490E00E9461
S1130CE0800B8C2FDF91CF911F910F91FF90EF908C
S1130CF00895EF92FF920F931F93CF93DF938C018C
S1130D007B01C0E0D0E06FEF8CE490E00E94800BA8
S1130D102196882324F42097B1F7C1E838C0CD2B5D
S1130D2079F181112FC0C0E0D0E06FEF8CE490E046
S1130D300E94800B21968F3F21F42097B1F7C1E8E0
S1130D4026C0CD2B09F18E3F09F50115110561F07F
S1130D50E7010E0D1F1D6FEF8CE490E00E94800BE5
S1130D608993C017D107B9F76FEF8CE490E00E9424
S1130D70800B6FEF8CE490E00E94800BC0E007C012
S1130D80C1E805C0C3E803C0C1E801C0C4E86FEF0F
S1130D908CE490E00E94800B8C2FDF91CF911F9107
S1130DA00F91FF90EF9008954F925F926F927F9210
S1130DB09F92AF92BF92CF92DF92EF92FF920F93E6
S1130DC01F93CF93DF93CDB7DEB728970FB6F89470
S1130DD0DEBF0FBECDBF0E94BB0BE82E992E8FEF56
S1130DE0809326014E2D592F60E083E192E00E940A
S1130DF0BE0B4E2D592D60E088EC90E00E94DE0B76
S1130E0068E083E290E00E9442014E2D592D60E09B
S1130E1084E092E00E94BE0B4E2D592D60E088ECD8
S1130E2090E00E94DE0BC12CD12C0F2EF5E1AF2EE9
S1130E30F1E0BF2EF02D60E183E290E00E943D01DD
S1130E4060E183E290E00E9438010AE010E06FEF75
S1130E508CE490E00E94800B01501109C1F760E816
S1130E6086E290E00E94420160E183E290E00E9409
S1130E70420140E050E0BA0180E00E94F005F82E03
S1130E80811136C0BE016F5F7F4F81E00E94320640
S1130E90F82E60E183E290E00E943D0168E083E285
S1130EA090E00E943D014E2D592D60E088EB91E0C9
S1130EB00E94BE0B4E2D592D60E088EC90E00E94FC
S1130EC0DE0B89811F928F93BF92AF929F92EF9214
S1130ED00E94B40C4E2D592D60E088EC90E00E94E5
S1130EE0DE0B0F900F900F900F900F900F900FC08C
S1130EF060E183E290E00E943D0168E083E290E0DB
S1130F000E943D0160E880E290E00E9442018981F4
S1130F10813009F40BC360E183E290E00E94420156
S1130F2002E112E06FEF8CE490E00E94800B01502C
S1130F301109C1F760E183E290E00E943D018FEF67
S1130F40C81AD80A8981813051F0EAE0CE16D1045A
S1130F5009F071CF0F2EF3E8FF2EF02D11C3FAE044
S1130F60CF16D10409F0E6C2DAC268E083E290E069
S1130F700E9442014E2D592D60E085EF91E00E94C0
S1130F80BE0B4E2D592D60E088EC90E00E94DE0BE4
S1130F9060E183E290E00E9442014AEA51E060E0AD
S1130FA070E088E00E94F005F82E811156C0BE0161
S1130FB06F5F7F4F85E00E943206F82E60E183E286
S1130FC090E00E943D0168E083E290E00E943D01D0
S1130FD04E2D592D60E088EB91E00E94BE0B4E2D02
S1130FE0592D60E088EC90E00E94DE0B8E010F5FCB
S1130FF01F4F5E0186E0A80EB11C0F2EFEE0CF2E1F
S1131000F1E0DF2EF02DF80181918F011F928F9373
S1131010DF92CF929F92EF920E94B40C4E2D592DE5
S113102060E088EC90E00E94DE0B0F900F900F9030
S11310300F900F900F90A016B10629F76DE088EC81
S113104090E00E94AE0B6AE088EC90E00E94AE0B48
S11310508D818A3A09F0A2C210C060E183E290E077
S11310600E943D0168E083E290E00E943D0160E857
S113107080E290E00E94420102C0FF2019F1F2E8F0
S1131080FF127EC289E0809326014E2D592D60E027
S11310908AE991E00E94BE0B4E2D592D60E088EC48
S11310A090E00E94DE0B4E2D592D60E089E591E021
S11310B00E94BE0B4E2D592D60E088EC90E00E94FA
S11310C0DE0B3BC282E0809326014E2D592D60E059
S11310D08CE791E00E94BE0B4E2D592D60E088EC08
S11310E090E00E94DE0B29C2BE016F5F7F4F85E056
S11310F00E943206F82E60E183E290E00E943D01F6
S113110068E083E290E00E943D014E2D592D60E09D
S113111088EB91E00E94BE0B4E2D592D60E088ECC7
S113112090E00E94DE0B8E010F5F1F4F5E0186E090
S1131130A80EB11C0F2EFEE0CF2EF1E0DF2EF02D15
S1131140F80181918F011F928F93DF92CF929F922A
S1131150EF920E94B40C4E2D592D60E088EC90E083
S11311600E94DE0B0F900F900F900F900F900F9036
S1131170A016B10629F76DE088EC90E00E94AE0B52
S11311806AE088EC90E00E94AE0B8B818C7F8C3FF0
S113119009F011C210C060E183E290E00E943D01B9
S11311A068E083E290E00E943D0160E880E290E024
S11311B00E94420104C2F11002C2809126018230D1
S11311C021F0412C512C320105C0412C512C32010B
S11311D0689476F868E083E290E00E9442014E2D24
S11311E0592D60E084EC91E00E94BE0B4E2D592DE8
S11311F060E088EC90E00E94DE0B60E183E290E026
S11312000E94420100E010E040E050E0BA0187E3B0
S11312100E94F005F82E8111B7C1BE016F5F7F4FA8
S113122081E00E943206F82E8981823030F4B301C5
S1131230A20189E20E94F005F82EF11006C0BE0159
S11312406F5F7F4F81E00E9432060F5F1F4F09F4EA
S1131250AAC1898180FF03C0FF20B1F237C0F11019
S113126035C060E183E290E00E943D0168E083E2E2
S113127090E00E943D014E2D592D60E088EB91E0F5
S11312800E94BE0B4E2D592D60E088EC90E00E9428
S1131290DE0B89811F928F938DE191E09F938F9351
S11312A09F92EF920E94B40C4E2D592D60E088EC71
S11312B090E00E94DE0B0F900F900F900F900F9014
S11312C00F9015C00F2EF1E8FF2EF02D60E183E2A0
S11312D090E00E943D0168E083E290E00E943D01BD
S11312E060E880E290E00E944201F11068C18091C0
S11312F02601823009F018C168E083E290E00E9480
S113130042014E2D592D60E085ED91E00E94BE0B07
S11313104E2D592D60E088EC90E00E94DE0B60E1D8
S113132083E290E00E94420140E050E0BA018AE387
S11313300E94F005F82E8111E2C0BE016F5F7F4F5D
S113134085E00E943206F82E60E183E290E00E947C
S11313503D0168E083E290E00E943D014E2D592D4D
S113136060E088EB91E00E94BE0B4E2D592D60E0A9
S113137088EC90E00E94DE0B8E010F5F1F4F5E0130
S1131380F6E0AF0EB11C0F2EFEE0CF2EF1E0DF2E03
S1131390F02DF80181918F011F928F93DF92CF92EC
S11313A09F92EF920E94B40C4E2D592D60E088EC70
S11313B090E00E94DE0B0F900F900F900F900F9013
S11313C00F90A016B10629F76DE088EC90E00E941A
S11313D0AE0B6AE088EC90E00E94AE0B8A81882311
S11313E00CF0D7C0807C803C89F4109226014E2DED
S11313F0592D60E08AE391E00E94BE0B4E2D592DD9
S113140060E088EC90E00E94DE0BD9C089E0809314
S113141026014E2D592D60E089E591E00E94BE0B16
S11314204E2D592D60E088EC90E00E94DE0B68E0C0
S113143083E290E00E9442014E2D592D60E085EE3A
S113144091E00E94BE0B4E2D592D60E088EC90E097
S11314500E94DE0B60E183E290E00E94420140E0E2
S113146052E060E070E080E10E94F005F82E811106
S1131470A6C0BE016F5F7F4F81E00E943206F82E46
S113148060E183E290E00E943D0168E083E290E045
S11314900E943D014E2D592D60E088EB91E00E94A1
S11314A0BE0B4E2D592D60E088EC90E00E94DE0BBF
S11314B089811F928F938DE191E09F938F939F92E7
S11314C0EF920E94B40C4E2D592D60E088EC90E010
S11314D00E94DE0B4E2D592D60E08CE191E00E94BC
S11314E0BE0B4E2D592D60E088EC90E00E94DE0B7F
S11314F00F900F900F900F900F900F9060C060E1CD
S113150083E290E00E943D0168E083E290E00E9463
S11315103D0160E880E290E00E94420150C00F2E3D
S1131520F3E8FF2EF02D4BC0F12C49C0FFEFCF1A8A
S1131530DF0A15CDF110D9CE18CD68E083E290E032
S11315400E9442014E2D592D60E085ED91E00E94EC
S1131550BE0B4E2D592D60E088EC90E00E94DE0B0E
S113156060E183E290E00E94420140E050E0BA0171
S11315708AE30E94F005F82E882309F4B5CD0BCE3A
S1131580FF2009F41ACE1BC08981823008F05DCE99
S11315904ECE0F2EF6E8FF2EF02D11C00F2EF3E8DD
S11315A0FF2EF02DA2CE898180FD8CCE0F2EF1E886
S11315B0FF2EF02D54CE0F2EF5E8FF2EF02D8F2D9B
S11315C028960FB6F894DEBF0FBECDBFDF91CF9142
S11315D01F910F91FF90EF90DF90CF90BF90AF904D
S11315E09F907F906F905F904F9008958091260117
S11315F00895CF92DF92EF92FF92CF93DF93EC01A5
S11316006A017B018C349105A9F460E283E290E0E5
S11316100E943D0160E283E290E00E94380160E8AC
S113162083E290E00E94420160E883E290E00E943D
S1131630380117C08C3A9105A1F468E08CE290E07F
S11316400E943D0168E08CE290E00E94380160E86D
S113165089E290E00E94420160E889E290E00E9401
S1131660380160E074E284EF90E0A70196010E94E3
S11316703C0C223030F480E5888381E0898380E06B
S113168038C08EEF820F823028F480E58883198277
S113169080E02FC08CEF820F843030F481E58883A2
S11316A081E0898380E025C088EF820F883028F4A8
S11316B081E58883198280E01CC080EF820F80312D
S11316C030F482E5888381E0898380E012C080EE73
S11316D0820F803228F482E58883198280E009C071
S11316E02054203428F483E58883198280E001C0E3
S11316F08FE0DF91CF91FF90EF90DF90CF9008952E
S1131700FC01628391819923ECF782810895CF9340
S1131710DF93EC01CB01A0E0B0E0880F991FAA1F72
S1131720BB1F880F991FAA1FBB1F9C01AD01220F6D
S1131730331F441F551F60E074E284EF90E00E9461
S11317403C0C215031093D832C8382E0888386E060
S11317508A8388E18983DF91CF910895FC01908188
S113176095FFFDCF668380E00895FC019081992365
S1131770ECF78681089587E291E0089561110EC027
S1131780262F30E0FC01E20FF31FE491DA01A20FEF
S1131790B31FEC936F5FE111F3CF0EC0FC01DA01CC
S11317A08FEF860F90E00196480F591F84918D9317
S11317B03196A417B507D1F7862F0895CF92DF92FB
S11317C0EF92FF920F931F93CF93DF937C018A01D3
S11317D0662331F0C62ED12C1C141D0474F01FC0D6
S11317E0FA0160816623D9F0EA012196C7010E94BB
S11317F0AE0B69916111FACF12C0C0E0F801EC0F91
S1131800F11DC7FDFA956081C7010E94AE0BCF5F41
S11318108C2F0C2E000C990B8C159D057CF3DF91FD
S1131820CF911F910F91FF90EF90DF90CF9008958B
S1131830DB018F939F930E945E0CBF91AF91A29F97
S1131840800D911DA39F900DB29F900D11240895BA
S1131850AA1BBB1B51E107C0AA1FBB1FA617B707D2
S113186010F0A61BB70B881F991F5A95A9F78095EE
S11318709095BC01CD010895A1E21A2EAA1BBB1BB1
S1131880FD010DC0AA1FBB1FEE1FFF1FA217B30748
S1131890E407F50720F0A21BB30BE40BF50B661F5E
S11318A0771F881F991F1A9469F760957095809522
S11318B090959B01AC01BD01CF0108950E94690C74
S11318C0A59F900DB49F900DA49F800D911D112490
S11318D00895A29FB001B39FC001A39F700D811D05
S11318E01124911DB29F700D811D1124911D089525
S11318F01F93FC0199278827BC01E89411911032A9
S1131900E9F3193010F01E30C8F31B3251F01D32C8
S113191049F4689406C00E949F0C610F711D811DDB
S1131920911D119110531A30B0F33EF490958095A7
S1131930709561957F4F8F4F9F4F1F910895592F39
S1131940482F372F262F660F771F881F991F660F82
S1131950771F881F991F620F731F841F951F660FBF
S1131960771F881F991F0895AEE0B0E0EAEBFCE012
S11319700C94750F0D891E8986E08C831A83098364
S11319808FEF9FE79E838D83AE01475E5F4F6F8924
S1131990788DCE0101960E94D60CEF81F885E00F78
S11319A0F11F10822E96E4E00C94910FABE0B0E0AE
S11319B0ECEDFCE00C94670F6C017B018A01FC01E7
S11319C017821682838181FFCCC1CE0101963C012E
S11319D0F6019381F70193FD859193FF81917F0136
S11319E0882309F4BAC1853239F493FD859193FFB4
S11319F081917F01853229F4B60190E00E94CD0ED9
S1131A00E7CF912C212C312CFFE1F315D8F08B3248
S1131A1079F038F4803279F08332A1F4232D2061F7
S1131A201DC08D3261F0803369F4232D216016C00E
S1131A30832D8260382EE32DE4603E2E2AC0F32DE0
S1131A40F8601DC037FC2DC020ED280F2A3040F06F
S1131A508E32B9F436FC81C1232D2064322E19C094
S1131A6036FE06C08AE0989E200D1124922E11C0E5
S1131A70EAE02E9E200D1124222EF32DF0623F2E3B
S1131A8008C08C3621F4832D8068382E02C0883635
S1131A9041F4F70193FD859193FF81917F018111B9
S1131AA0B3CF982F9F7D9554933028F40C5F1F4F2C
S1131AB09FE399830DC0833631F0833771F083350A
S1131AC009F059C021C0F801808189830E5F1F4F3E
S1131AD088248394912C530113C02801F2E04F0E03
S1131AE0511CF801A080B18036FE03C0692D70E05E
S1131AF002C06FEF7FEFC5010E94C20E4C0182014C
S1131B00F32DFF773F2E16C0280122E0420E511C10
S1131B10F801A080B18036FE03C0692D70E002C0D8
S1131B206FEF7FEFC5010E94B70E4C01F32DF068F3
S1131B303F2E820133FC1BC0822D90E0881699064B
S1131B40B0F4B60180E290E00E94CD0E2A94F4CF66
S1131B50F50137FC859137FE81915F01B60190E074
S1131B600E94CD0E21102A9421E0821A910881143A
S1131B70910471F7E8C0843611F0893641F5F80113
S1131B8037FE07C060817181828193810C5F1F4F92
S1131B9008C060817181072E000C880B990B0E5FC1
S1131BA01F4FF32DFF763F2E97FF09C09095809528
S1131BB0709561957F4F8F4F9F4FF0683F2E2AE0BD
S1131BC030E0A3010E94090F882E861845C085378E
S1131BD031F4232D2F7EB22E2AE030E025C0932D40
S1131BE0997FB92E8F36C1F018F4883579F0B5C0D5
S1131BF0803719F0883721F0B0C0E92FE061BE2E9C
S1131C00B4FE0DC0FB2DF460BF2E09C034FE0AC023
S1131C10292F2660B22E06C028E030E005C020E15E
S1131C2030E002C020E132E0F801B7FE07C0608175
S1131C307181828193810C5F1F4F06C06081718125
S1131C4080E090E00E5F1F4FA3010E94090F882ED1
S1131C508618FB2DFF773F2E36FE0DC0232D2E7FD9
S1131C60A22E891458F434FE0BC032FC09C0832D13
S1131C708E7EA82E05C0B82CA32C03C0B82C01C09E
S1131C80B92CA4FE0FC0FE01E80DF11D8081803344
S1131C9021F49A2D997EA92E09C0A2FE06C0B39400
S1131CA0B39404C08A2D867809F0B394A3FC11C0C0
S1131CB0A0FE06C0B21488F4280C922C9B180EC007
S1131CC0B21460F4B60180E290E00E94CD0EB394A9
S1131CD0F7CFB21418F42B1802C0982C212CA4FEB0
S1131CE010C0B60180E390E00E94CD0EA2FE17C0A2
S1131CF0A1FC03C088E790E002C088E590E0B6014B
S1131D000CC08A2D867859F0A1FE02C08BE201C076
S1131D1080E2A7FC8DE2B60190E00E94CD0E89140A
S1131D2038F4B60180E390E00E94CD0E9A94F7CF88
S1131D308A94F301E80DF11D8081B60190E00E94C0
S1131D40CD0E8110F5CF222009F442CEB60180E2F7
S1131D5090E00E94CD0E2A94F6CFF60186819781F9
S1131D6002C08FEF9FEF2B96E2E10C94830FFC01EE
S1131D700590615070400110D8F7809590958E0FB2
S1131D809F1F0895FC016150704001900110D8F725
S1131D90809590958E0F9F1F08950F931F93CF9357
S1131DA0DF93FB01238121FD03C08FEF9FEF2CC044
S1131DB022FF16C04681578124813581421753077B
S1131DC044F4A081B1819D012F5F3F4F3183208373
S1131DD08C93268137812F5F3F4F3783268314C02E
S1131DE08B01EC01FB010084F185E02D0995892B21
S1131DF0E1F6D80116968D919C9117970196179646
S1131E009C938E931697CE01DF91CF911F910F91E2
S1131E100895FA01AA27283051F1203181F1E8947C
S1131E206F936E7F6E5F7F4F8F4F9F4FAF4FB1E0C9
S1131E303ED0B4E03CD0670F781F891F9A1FA11DC4
S1131E40680F791F8A1F911DA11D6A0F711D811DC5
S1131E50911DA11D20D009F468943F912AE0269F8A
S1131E6011243019305D3193DEF6CF010895462FE9
S1131E704770405D4193B3E00FD0C9F7F6CF462FCA
S1131E804F70405D4A3318F0495D31FD4052419333
S1131E9002D0A9F7EACFB4E0A695979587957795F0
S1131EA06795BA95C9F700976105710508959B0177
S1131EB0AC010A2E06945795479537952795BA9500
S1131EC0C9F7620F731F841F951FA01D08952F92D9
S1131ED03F924F925F926F927F928F929F92AF92B6
S1131EE0BF92CF92DF92EF92FF920F931F93CF9303
S1131EF0DF93CDB7DEB7CA1BDB0B0FB6F894DEBF9A
S1131F000FBECDBF09942A88398848885F846E84BF
S1131F107D848C849B84AA84B984C884DF80EE8009
S1131F20FD800C811B81AA81B981CE0FD11D0FB612
S1131F30F894DEBF0FBECDBFED010895F894FFCF36
S1131F4025702000307825342E3458202000253286
S1131F502E3258200025322E32580A0D0025322EFA
S1091F603258200A0D00B6
S9030000FC
